{
  "transactions": [
    {
      "hash": "0xca2a1eb2a5198fe48d22598bb2328dbde8f0d18a5a8437c7ec3da07b6e4398fb",
      "transactionType": "CREATE",
      "contractName": "SafePortfolioModule",
      "contractAddress": "0xf9e3956d538e03d54dc481d3999a6e0eb82917b0",
      "function": null,
      "arguments": [
        "0x5833A9331090962BC2EF2F59aeCeddd82b4a7173"
      ],
      "transaction": {
        "from": "0x1bab12dd29e89455752613055ec6036ed6c17ccf",
        "gas": "0x30df98",
        "value": "0x0",
        "input": "0x608060405234801561000f575f5ffd5b50604051612c8e380380612c8e8339818101604052810190610031919061018f565b600161004f6100446100ff60201b60201c565b61012860201b60201c565b5f01819055505f73ffffffffffffffffffffffffffffffffffffffff168173ffffffffffffffffffffffffffffffffffffffff16036100ba576040517fb81fa77900000000000000000000000000000000000000000000000000000000815260040160405180910390fd5b805f5f6101000a81548173ffffffffffffffffffffffffffffffffffffffff021916908373ffffffffffffffffffffffffffffffffffffffff160217905550506101ba565b5f7f9b779b17422d0df92223018b32b4d1fa46e071723d6817e2486d003becc55f005f1b905090565b5f819050919050565b5f5ffd5b5f73ffffffffffffffffffffffffffffffffffffffff82169050919050565b5f61015e82610135565b9050919050565b61016e81610154565b8114610178575f5ffd5b50565b5f8151905061018981610165565b92915050565b5f602082840312156101a4576101a3610131565b5b5f6101b18482850161017b565b91505092915050565b612ac7806101c75f395ff3fe608060405234801561000f575f5ffd5b50600436106100e8575f3560e01c80639aefaff81161008a578063d3d347e911610064578063d3d347e91461026c578063e2e0882714610288578063e42d7671146102a6578063f96b5bc1146102c2576100e8565b80639aefaff8146101ec578063cbed1cfc14610208578063d0fbc1dc1461023c576100e8565b806364f3f211116100c657806364f3f211146101685780636b76a4cf1461019857806374dfc727146101b45780639054b6cf146101d0576100e8565b806304596980146100ec5780633c82cd041461011c5780633f06b34d1461014c575b5f5ffd5b6101066004803603810190610101919061224f565b6102de565b60405161011391906122b9565b60405180910390f35b610136600480360381019061013191906122d2565b61042d565b604051610143919061237b565b60405180910390f35b610166600480360381019061016191906123be565b6104e9565b005b610182600480360381019061017d91906122d2565b6106fc565b60405161018f919061241d565b60405180910390f35b6101b260048036038101906101ad91906122d2565b610807565b005b6101ce60048036038101906101c99190612436565b610a05565b005b6101ea60048036038101906101e59190612474565b610bc5565b005b6102066004803603810190610201919061252a565b610d70565b005b610222600480360381019061021d91906122d2565b611206565b6040516102339594939291906125ae565b60405180910390f35b61025660048036038101906102519190612474565b6112e4565b60405161026391906122b9565b60405180910390f35b6102866004803603810190610281919061224f565b611339565b005b6102906115a2565b60405161029d919061260e565b60405180910390f35b6102c060048036038101906102bb9190612627565b6115c9565b005b6102dc60048036038101906102d7919061224f565b611959565b005b5f5f60015f8673ffffffffffffffffffffffffffffffffffffffff1673ffffffffffffffffffffffffffffffffffffffff1681526020019081526020015f209050806003015f9054906101000a900460ff16806103835750806002015f8573ffffffffffffffffffffffffffffffffffffffff1673ffffffffffffffffffffffffffffffffffffffff1681526020019081526020015f205f9054906101000a900460ff165b806104235750806001015f8573ffffffffffffffffffffffffffffffffffffffff1673ffffffffffffffffffffffffffffffffffffffff1681526020019081526020015f205f847bffffffffffffffffffffffffffffffffffffffffffffffffffffffff19167bffffffffffffffffffffffffffffffffffffffffffffffffffffffff191681526020019081526020015f205f9054906101000a900460ff165b9150509392505050565b610435612174565b60015f8473ffffffffffffffffffffffffffffffffffffffff1673ffffffffffffffffffffffffffffffffffffffff1681526020019081526020015f205f015f8373ffffffffffffffffffffffffffffffffffffffff1673ffffffffffffffffffffffffffffffffffffffff1681526020019081526020015f206040518060800160405290815f82015481526020016001820154815260200160028201548152602001600382015481525050905092915050565b825f8173ffffffffffffffffffffffffffffffffffffffff163b0361053a576040517f3f695ffd00000000000000000000000000000000000000000000000000000000815260040160405180910390fd5b8073ffffffffffffffffffffffffffffffffffffffff16632f54bf6e336040518263ffffffff1660e01b8152600401610573919061260e565b602060405180830381865afa15801561058e573d5f5f3e3d5ffd5b505050506040513d601f19601f820116820180604052508101906105b2919061269f565b6105e8576040517f83d8ce4b00000000000000000000000000000000000000000000000000000000815260040160405180910390fd5b8160015f8673ffffffffffffffffffffffffffffffffffffffff1673ffffffffffffffffffffffffffffffffffffffff1681526020019081526020015f206002015f8573ffffffffffffffffffffffffffffffffffffffff1673ffffffffffffffffffffffffffffffffffffffff1681526020019081526020015f205f6101000a81548160ff0219169083151502179055503373ffffffffffffffffffffffffffffffffffffffff168373ffffffffffffffffffffffffffffffffffffffff168573ffffffffffffffffffffffffffffffffffffffff167f9e66f8571dd71a8940af4a6824ef3c6e424894a5e9ce2b64cbd1fed27c3b23ce856040516106ee91906122b9565b60405180910390a450505050565b5f5f60015f8573ffffffffffffffffffffffffffffffffffffffff1673ffffffffffffffffffffffffffffffffffffffff1681526020019081526020015f205f015f8473ffffffffffffffffffffffffffffffffffffffff1673ffffffffffffffffffffffffffffffffffffffff1681526020019081526020015f2090505f815f0154036107ad577fffffffffffffffffffffffffffffffffffffffffffffffffffffffffffffffff915050610801565b806001015481600201546107c191906126f7565b42106107d357805f0154915050610801565b805f01548160030154106107ea575f915050610801565b8060030154815f01546107fd919061272a565b9150505b92915050565b815f8173ffffffffffffffffffffffffffffffffffffffff163b03610858576040517f3f695ffd00000000000000000000000000000000000000000000000000000000815260040160405180910390fd5b8073ffffffffffffffffffffffffffffffffffffffff16632f54bf6e336040518263ffffffff1660e01b8152600401610891919061260e565b602060405180830381865afa1580156108ac573d5f5f3e3d5ffd5b505050506040513d601f19601f820116820180604052508101906108d0919061269f565b610906576040517f83d8ce4b00000000000000000000000000000000000000000000000000000000815260040160405180910390fd5b5f60015f8573ffffffffffffffffffffffffffffffffffffffff1673ffffffffffffffffffffffffffffffffffffffff1681526020019081526020015f205f015f8473ffffffffffffffffffffffffffffffffffffffff1673ffffffffffffffffffffffffffffffffffffffff1681526020019081526020015f209050428160020181905550806003015f90558273ffffffffffffffffffffffffffffffffffffffff168473ffffffffffffffffffffffffffffffffffffffff167fee535862da1d3e54b8b236afd1bbcb29a3410e510d44d482b6b8427df54dc7e95f5f855f01546040516109f79392919061279f565b60405180910390a350505050565b815f8173ffffffffffffffffffffffffffffffffffffffff163b03610a56576040517f3f695ffd00000000000000000000000000000000000000000000000000000000815260040160405180910390fd5b8073ffffffffffffffffffffffffffffffffffffffff16632f54bf6e336040518263ffffffff1660e01b8152600401610a8f919061260e565b602060405180830381865afa158015610aaa573d5f5f3e3d5ffd5b505050506040513d601f19601f82011682018060405250810190610ace919061269f565b610b04576040517f83d8ce4b00000000000000000000000000000000000000000000000000000000815260040160405180910390fd5b8160015f8573ffffffffffffffffffffffffffffffffffffffff1673ffffffffffffffffffffffffffffffffffffffff1681526020019081526020015f206003015f6101000a81548160ff0219169083151502179055503373ffffffffffffffffffffffffffffffffffffffff168373ffffffffffffffffffffffffffffffffffffffff167f5592368676160d4bb3ecd44700be83efb401a45489f9d20b12aa40ed941b49c884604051610bb891906122b9565b60405180910390a3505050565b5f5f9054906101000a900473ffffffffffffffffffffffffffffffffffffffff1673ffffffffffffffffffffffffffffffffffffffff163373ffffffffffffffffffffffffffffffffffffffff1614610c4a576040517fa688a1cd00000000000000000000000000000000000000000000000000000000815260040160405180910390fd5b5f73ffffffffffffffffffffffffffffffffffffffff168173ffffffffffffffffffffffffffffffffffffffff1603610caf576040517fb81fa77900000000000000000000000000000000000000000000000000000000815260040160405180910390fd5b5f5f5f9054906101000a900473ffffffffffffffffffffffffffffffffffffffff169050815f5f6101000a81548173ffffffffffffffffffffffffffffffffffffffff021916908373ffffffffffffffffffffffffffffffffffffffff1602179055508173ffffffffffffffffffffffffffffffffffffffff168173ffffffffffffffffffffffffffffffffffffffff167f605ca4e43489fb38b91aa63dd9147cd3847957694b080b9285ec898b34269f0c60405160405180910390a35050565b5f5f9054906101000a900473ffffffffffffffffffffffffffffffffffffffff1673ffffffffffffffffffffffffffffffffffffffff163373ffffffffffffffffffffffffffffffffffffffff1614610df5576040517fa688a1cd00000000000000000000000000000000000000000000000000000000815260040160405180910390fd5b610dfd611bc2565b5f8573ffffffffffffffffffffffffffffffffffffffff163b03610e4d576040517f3f695ffd00000000000000000000000000000000000000000000000000000000815260040160405180910390fd5b8473ffffffffffffffffffffffffffffffffffffffff16632d9ad53d306040518263ffffffff1660e01b8152600401610e86919061260e565b602060405180830381865afa158015610ea1573d5f5f3e3d5ffd5b505050506040513d601f19601f82011682018060405250810190610ec5919061269f565b610efb576040517f9a043ec100000000000000000000000000000000000000000000000000000000815260040160405180910390fd5b5f60015f8773ffffffffffffffffffffffffffffffffffffffff1673ffffffffffffffffffffffffffffffffffffffff1681526020019081526020015f2090505f60048484905010610f685783835f90600492610f5a939291906127dc565b90610f65919061282c565b90505b5f826003015f9054906101000a900460ff1680610fcd5750826002015f8873ffffffffffffffffffffffffffffffffffffffff1673ffffffffffffffffffffffffffffffffffffffff1681526020019081526020015f205f9054906101000a900460ff165b8061107d57506004858590501015801561107c5750826001015f8873ffffffffffffffffffffffffffffffffffffffff1673ffffffffffffffffffffffffffffffffffffffff1681526020019081526020015f205f837bffffffffffffffffffffffffffffffffffffffffffffffffffffffff19167bffffffffffffffffffffffffffffffffffffffffffffffffffffffff191681526020019081526020015f205f9054906101000a900460ff165b5b9050806110b6576040517f829e373300000000000000000000000000000000000000000000000000000000815260040160405180910390fd5b5f6110c18985611be4565b90505f8973ffffffffffffffffffffffffffffffffffffffff1663468721a78a8a8a8a5f6040518663ffffffff1660e01b8152600401611105959493929190612920565b6020604051808303815f875af1158015611121573d5f5f3e3d5ffd5b505050506040513d601f19601f82011682018060405250810190611145919061269f565b90508061117e576040517fcce1466600000000000000000000000000000000000000000000000000000000815260040160405180910390fd5b6111898a8684611da7565b8873ffffffffffffffffffffffffffffffffffffffff168a73ffffffffffffffffffffffffffffffffffffffff167f675000936ae4df1007d4175f3d3c2077fb15855ca339644bfc09626c412c45e08a8a8a6040516111ea9392919061296c565b60405180910390a350505050506111ff611f27565b5050505050565b5f5f5f5f5f5f60015f8973ffffffffffffffffffffffffffffffffffffffff1673ffffffffffffffffffffffffffffffffffffffff1681526020019081526020015f205f015f8873ffffffffffffffffffffffffffffffffffffffff1673ffffffffffffffffffffffffffffffffffffffff1681526020019081526020015f209050805f015495508060010154945080600201549350806003015492505f816001015482600201546112b891906126f7565b90508042106112c9575f92506112d8565b42816112d5919061272a565b92505b50509295509295909350565b5f60015f8373ffffffffffffffffffffffffffffffffffffffff1673ffffffffffffffffffffffffffffffffffffffff1681526020019081526020015f206003015f9054906101000a900460ff169050919050565b825f8173ffffffffffffffffffffffffffffffffffffffff163b0361138a576040517f3f695ffd00000000000000000000000000000000000000000000000000000000815260040160405180910390fd5b8073ffffffffffffffffffffffffffffffffffffffff16632f54bf6e336040518263ffffffff1660e01b81526004016113c3919061260e565b602060405180830381865afa1580156113de573d5f5f3e3d5ffd5b505050506040513d601f19601f82011682018060405250810190611402919061269f565b611438576040517f83d8ce4b00000000000000000000000000000000000000000000000000000000815260040160405180910390fd5b6001805f8673ffffffffffffffffffffffffffffffffffffffff1673ffffffffffffffffffffffffffffffffffffffff1681526020019081526020015f206001015f8573ffffffffffffffffffffffffffffffffffffffff1673ffffffffffffffffffffffffffffffffffffffff1681526020019081526020015f205f847bffffffffffffffffffffffffffffffffffffffffffffffffffffffff19167bffffffffffffffffffffffffffffffffffffffffffffffffffffffff191681526020019081526020015f205f6101000a81548160ff021916908315150217905550817bffffffffffffffffffffffffffffffffffffffffffffffffffffffff19168373ffffffffffffffffffffffffffffffffffffffff168573ffffffffffffffffffffffffffffffffffffffff167f5e46a401bd19db7989e4bddec8853994809790cc1d0c1a35d4f607ab784beb3133604051611594919061260e565b60405180910390a450505050565b5f5f5f9054906101000a900473ffffffffffffffffffffffffffffffffffffffff16905090565b835f8173ffffffffffffffffffffffffffffffffffffffff163b0361161a576040517f3f695ffd00000000000000000000000000000000000000000000000000000000815260040160405180910390fd5b8073ffffffffffffffffffffffffffffffffffffffff16632f54bf6e336040518263ffffffff1660e01b8152600401611653919061260e565b602060405180830381865afa15801561166e573d5f5f3e3d5ffd5b505050506040513d601f19601f82011682018060405250810190611692919061269f565b6116c8576040517f83d8ce4b00000000000000000000000000000000000000000000000000000000815260040160405180910390fd5b5f8203611701576040517feb0b742100000000000000000000000000000000000000000000000000000000815260040160405180910390fd5b5f60015f8773ffffffffffffffffffffffffffffffffffffffff1673ffffffffffffffffffffffffffffffffffffffff1681526020019081526020015f209050806005015f8673ffffffffffffffffffffffffffffffffffffffff1673ffffffffffffffffffffffffffffffffffffffff1681526020019081526020015f205f9054906101000a900460ff1661184b578060040185908060018154018082558091505060019003905f5260205f20015f9091909190916101000a81548173ffffffffffffffffffffffffffffffffffffffff021916908373ffffffffffffffffffffffffffffffffffffffff1602179055506001816005015f8773ffffffffffffffffffffffffffffffffffffffff1673ffffffffffffffffffffffffffffffffffffffff1681526020019081526020015f205f6101000a81548160ff0219169083151502179055505b60405180608001604052808581526020018481526020014281526020015f815250815f015f8773ffffffffffffffffffffffffffffffffffffffff1673ffffffffffffffffffffffffffffffffffffffff1681526020019081526020015f205f820151815f01556020820151816001015560408201518160020155606082015181600301559050503373ffffffffffffffffffffffffffffffffffffffff168573ffffffffffffffffffffffffffffffffffffffff168773ffffffffffffffffffffffffffffffffffffffff167f4adc722d6e1fbc0bd6314e5a8a4f3fa7729cc2b60b3a9c075614f6069fcad029878760405161194992919061299c565b60405180910390a4505050505050565b825f8173ffffffffffffffffffffffffffffffffffffffff163b036119aa576040517f3f695ffd00000000000000000000000000000000000000000000000000000000815260040160405180910390fd5b8073ffffffffffffffffffffffffffffffffffffffff16632f54bf6e336040518263ffffffff1660e01b81526004016119e3919061260e565b602060405180830381865afa1580156119fe573d5f5f3e3d5ffd5b505050506040513d601f19601f82011682018060405250810190611a22919061269f565b611a58576040517f83d8ce4b00000000000000000000000000000000000000000000000000000000815260040160405180910390fd5b5f60015f8673ffffffffffffffffffffffffffffffffffffffff1673ffffffffffffffffffffffffffffffffffffffff1681526020019081526020015f206001015f8573ffffffffffffffffffffffffffffffffffffffff1673ffffffffffffffffffffffffffffffffffffffff1681526020019081526020015f205f847bffffffffffffffffffffffffffffffffffffffffffffffffffffffff19167bffffffffffffffffffffffffffffffffffffffffffffffffffffffff191681526020019081526020015f205f6101000a81548160ff021916908315150217905550817bffffffffffffffffffffffffffffffffffffffffffffffffffffffff19168373ffffffffffffffffffffffffffffffffffffffff168573ffffffffffffffffffffffffffffffffffffffff167ffba4ce904f44e2e32ca7858f61655295794e3a2ca1154d04e723e46bb40b2f0833604051611bb4919061260e565b60405180910390a450505050565b611bca611f41565b6002611bdc611bd7611f82565b611fab565b5f0181905550565b60605f826004018054905090508067ffffffffffffffff811115611c0b57611c0a6129c3565b5b604051908082528060200260200182016040528015611c395781602001602082028036833780820191505090505b5091505f5f90505b81811015611d9f575f846004018281548110611c6057611c5f6129f0565b5b905f5260205f20015f9054906101000a900473ffffffffffffffffffffffffffffffffffffffff1690505f73ffffffffffffffffffffffffffffffffffffffff168173ffffffffffffffffffffffffffffffffffffffff1603611cf9578573ffffffffffffffffffffffffffffffffffffffff1631848381518110611ce857611ce76129f0565b5b602002602001018181525050611d91565b8073ffffffffffffffffffffffffffffffffffffffff166370a08231876040518263ffffffff1660e01b8152600401611d32919061260e565b602060405180830381865afa158015611d4d573d5f5f3e3d5ffd5b505050506040513d601f19601f82011682018060405250810190611d719190612a31565b848381518110611d8457611d836129f0565b5b6020026020010181815250505b508080600101915050611c41565b505092915050565b5f826004018054905090505f5f90505b81811015611f20575f846004018281548110611dd657611dd56129f0565b5b905f5260205f20015f9054906101000a900473ffffffffffffffffffffffffffffffffffffffff1690505f848381518110611e1457611e136129f0565b5b602002602001015190505f5f73ffffffffffffffffffffffffffffffffffffffff168373ffffffffffffffffffffffffffffffffffffffff1603611e71578773ffffffffffffffffffffffffffffffffffffffff16319050611eec565b8273ffffffffffffffffffffffffffffffffffffffff166370a08231896040518263ffffffff1660e01b8152600401611eaa919061260e565b602060405180830381865afa158015611ec5573d5f5f3e3d5ffd5b505050506040513d601f19601f82011682018060405250810190611ee99190612a31565b90505b81811015611f10575f8183611f01919061272a565b9050611f0e898583611fb4565b505b5050508080600101915050611db7565b5050505050565b6001611f39611f34611f82565b611fab565b5f0181905550565b611f49612158565b15611f80576040517f3ee5aeb500000000000000000000000000000000000000000000000000000000815260040160405180910390fd5b565b5f7f9b779b17422d0df92223018b32b4d1fa46e071723d6817e2486d003becc55f005f1b905090565b5f819050919050565b5f60015f8573ffffffffffffffffffffffffffffffffffffffff1673ffffffffffffffffffffffffffffffffffffffff1681526020019081526020015f205f015f8473ffffffffffffffffffffffffffffffffffffffff1673ffffffffffffffffffffffffffffffffffffffff1681526020019081526020015f2090505f815f0154036120415750612153565b8060010154816002015461205591906126f7565b421061206c57428160020181905550806003015f90555b805f015482826003015461208091906126f7565b11156120b8576040517fa74c1c5f00000000000000000000000000000000000000000000000000000000815260040160405180910390fd5b81816003015f8282546120cb91906126f7565b925050819055508273ffffffffffffffffffffffffffffffffffffffff168473ffffffffffffffffffffffffffffffffffffffff167fee535862da1d3e54b8b236afd1bbcb29a3410e510d44d482b6b8427df54dc7e98484600301548560030154865f015461213a919061272a565b60405161214993929190612a5c565b60405180910390a3505b505050565b5f600261216b612166611f82565b611fab565b5f015414905090565b60405180608001604052805f81526020015f81526020015f81526020015f81525090565b5f5ffd5b5f5ffd5b5f73ffffffffffffffffffffffffffffffffffffffff82169050919050565b5f6121c9826121a0565b9050919050565b6121d9816121bf565b81146121e3575f5ffd5b50565b5f813590506121f4816121d0565b92915050565b5f7fffffffff0000000000000000000000000000000000000000000000000000000082169050919050565b61222e816121fa565b8114612238575f5ffd5b50565b5f8135905061224981612225565b92915050565b5f5f5f6060848603121561226657612265612198565b5b5f612273868287016121e6565b9350506020612284868287016121e6565b92505060406122958682870161223b565b9150509250925092565b5f8115159050919050565b6122b38161229f565b82525050565b5f6020820190506122cc5f8301846122aa565b92915050565b5f5f604083850312156122e8576122e7612198565b5b5f6122f5858286016121e6565b9250506020612306858286016121e6565b9150509250929050565b5f819050919050565b61232281612310565b82525050565b608082015f82015161233c5f850182612319565b50602082015161234f6020850182612319565b5060408201516123626040850182612319565b5060608201516123756060850182612319565b50505050565b5f60808201905061238e5f830184612328565b92915050565b61239d8161229f565b81146123a7575f5ffd5b50565b5f813590506123b881612394565b92915050565b5f5f5f606084860312156123d5576123d4612198565b5b5f6123e2868287016121e6565b93505060206123f3868287016121e6565b9250506040612404868287016123aa565b9150509250925092565b61241781612310565b82525050565b5f6020820190506124305f83018461240e565b92915050565b5f5f6040838503121561244c5761244b612198565b5b5f612459858286016121e6565b925050602061246a858286016123aa565b9150509250929050565b5f6020828403121561248957612488612198565b5b5f612496848285016121e6565b91505092915050565b6124a881612310565b81146124b2575f5ffd5b50565b5f813590506124c38161249f565b92915050565b5f5ffd5b5f5ffd5b5f5ffd5b5f5f83601f8401126124ea576124e96124c9565b5b8235905067ffffffffffffffff811115612507576125066124cd565b5b602083019150836001820283011115612523576125226124d1565b5b9250929050565b5f5f5f5f5f6080868803121561254357612542612198565b5b5f612550888289016121e6565b9550506020612561888289016121e6565b9450506040612572888289016124b5565b935050606086013567ffffffffffffffff8111156125935761259261219c565b5b61259f888289016124d5565b92509250509295509295909350565b5f60a0820190506125c15f83018861240e565b6125ce602083018761240e565b6125db604083018661240e565b6125e8606083018561240e565b6125f5608083018461240e565b9695505050505050565b612608816121bf565b82525050565b5f6020820190506126215f8301846125ff565b92915050565b5f5f5f5f6080858703121561263f5761263e612198565b5b5f61264c878288016121e6565b945050602061265d878288016121e6565b935050604061266e878288016124b5565b925050606061267f878288016124b5565b91505092959194509250565b5f8151905061269981612394565b92915050565b5f602082840312156126b4576126b3612198565b5b5f6126c18482850161268b565b91505092915050565b7f4e487b71000000000000000000000000000000000000000000000000000000005f52601160045260245ffd5b5f61270182612310565b915061270c83612310565b9250828201905080821115612724576127236126ca565b5b92915050565b5f61273482612310565b915061273f83612310565b9250828203905081811115612757576127566126ca565b5b92915050565b5f819050919050565b5f819050919050565b5f61278961278461277f8461275d565b612766565b612310565b9050919050565b6127998161276f565b82525050565b5f6060820190506127b25f830186612790565b6127bf6020830185612790565b6127cc604083018461240e565b949350505050565b5f5ffd5b5f5ffd5b5f5f858511156127ef576127ee6127d4565b5b83861115612800576127ff6127d8565b5b6001850283019150848603905094509492505050565b5f82905092915050565b5f82821b905092915050565b5f6128378383612816565b8261284281356121fa565b925060048210156128825761287d7fffffffff0000000000000000000000000000000000000000000000000000000083600403600802612820565b831692505b505092915050565b5f82825260208201905092915050565b828183375f83830152505050565b5f601f19601f8301169050919050565b5f6128c3838561288a565b93506128d083858461289a565b6128d9836128a8565b840190509392505050565b5f60ff82169050919050565b5f61290a6129056129008461275d565b612766565b6128e4565b9050919050565b61291a816128f0565b82525050565b5f6080820190506129335f8301886125ff565b612940602083018761240e565b81810360408301526129538185876128b8565b90506129626060830184612911565b9695505050505050565b5f60408201905061297f5f83018661240e565b81810360208301526129928184866128b8565b9050949350505050565b5f6040820190506129af5f83018561240e565b6129bc602083018461240e565b9392505050565b7f4e487b71000000000000000000000000000000000000000000000000000000005f52604160045260245ffd5b7f4e487b71000000000000000000000000000000000000000000000000000000005f52603260045260245ffd5b5f81519050612a2b8161249f565b92915050565b5f60208284031215612a4657612a45612198565b5b5f612a5384828501612a1d565b91505092915050565b5f606082019050612a6f5f83018661240e565b612a7c602083018561240e565b612a89604083018461240e565b94935050505056fea264697066735822122099d4202b397fe6718b1a49c1bdc297ff5e1c40513886293e0da034a792a92d1964736f6c634300081b00330000000000000000000000005833a9331090962bc2ef2f59aeceddd82b4a7173",
        "nonce": "0x12",
        "chainId": "0x1"
      },
      "additionalContracts": [],
      "isFixedGasLimit": false
    },
    {
      "hash": "0x2eea76bc36da1a60986de65751b893c1c85fb8b0696a8da9966a2f5d2d700a58",
      "transactionType": "CALL",
      "contractName": "SafePortfolioModule",
      "contractAddress": "0xf9e3956d538e03d54dc481d3999a6e0eb82917b0",
      "function": "allowAction(address,address,bytes4)",
      "arguments": [
        "0xe48f8112C78926bBe6e0AD89785E7F7d305e7868",
        "0x87870Bca3F3fD6335C3F4ce8392D69350B4fA4E2",
        "0x617ba037"
      ],
      "transaction": {
        "from": "0x1bab12dd29e89455752613055ec6036ed6c17ccf",
        "to": "0xf9e3956d538e03d54dc481d3999a6e0eb82917b0",
        "gas": "0x14e2f",
        "value": "0x0",
        "input": "0xd3d347e9000000000000000000000000e48f8112c78926bbe6e0ad89785e7f7d305e786800000000000000000000000087870bca3f3fd6335c3f4ce8392d69350b4fa4e2617ba03700000000000000000000000000000000000000000000000000000000",
        "nonce": "0x13",
        "chainId": "0x1"
      },
      "additionalContracts": [],
      "isFixedGasLimit": false
    },
    {
      "hash": "0xd82470c7ad30e66d55efe126983706a4a8f5c4c9f58dd781a91f24c22a7ac607",
      "transactionType": "CALL",
      "contractName": "SafePortfolioModule",
      "contractAddress": "0xf9e3956d538e03d54dc481d3999a6e0eb82917b0",
      "function": "allowAction(address,address,bytes4)",
      "arguments": [
        "0xe48f8112C78926bBe6e0AD89785E7F7d305e7868",
        "0x87870Bca3F3fD6335C3F4ce8392D69350B4fA4E2",
        "0x69328dec"
      ],
      "transaction": {
        "from": "0x1bab12dd29e89455752613055ec6036ed6c17ccf",
        "to": "0xf9e3956d538e03d54dc481d3999a6e0eb82917b0",
        "gas": "0x14e2f",
        "value": "0x0",
        "input": "0xd3d347e9000000000000000000000000e48f8112c78926bbe6e0ad89785e7f7d305e786800000000000000000000000087870bca3f3fd6335c3f4ce8392d69350b4fa4e269328dec00000000000000000000000000000000000000000000000000000000",
        "nonce": "0x14",
        "chainId": "0x1"
      },
      "additionalContracts": [],
      "isFixedGasLimit": false
    },
    {
      "hash": "0xcacfb280f8bbd58077d9f7f5afe7e8b625e33c1231d53be07fb58b2b689a30d3",
      "transactionType": "CALL",
      "contractName": "SafePortfolioModule",
      "contractAddress": "0xf9e3956d538e03d54dc481d3999a6e0eb82917b0",
      "function": "allowAction(address,address,bytes4)",
      "arguments": [
        "0xe48f8112C78926bBe6e0AD89785E7F7d305e7868",
        "0x87870Bca3F3fD6335C3F4ce8392D69350B4fA4E2",
        "0xa415bcad"
      ],
      "transaction": {
        "from": "0x1bab12dd29e89455752613055ec6036ed6c17ccf",
        "to": "0xf9e3956d538e03d54dc481d3999a6e0eb82917b0",
        "gas": "0x14e2f",
        "value": "0x0",
        "input": "0xd3d347e9000000000000000000000000e48f8112c78926bbe6e0ad89785e7f7d305e786800000000000000000000000087870bca3f3fd6335c3f4ce8392d69350b4fa4e2a415bcad00000000000000000000000000000000000000000000000000000000",
        "nonce": "0x15",
        "chainId": "0x1"
      },
      "additionalContracts": [],
      "isFixedGasLimit": false
    },
    {
      "hash": "0x7a58f9ac2ecec723a4a54174639a4242c00d020f9e2a52f1d8f8a03acfdc9a2a",
      "transactionType": "CALL",
      "contractName": "SafePortfolioModule",
      "contractAddress": "0xf9e3956d538e03d54dc481d3999a6e0eb82917b0",
      "function": "allowAction(address,address,bytes4)",
      "arguments": [
        "0xe48f8112C78926bBe6e0AD89785E7F7d305e7868",
        "0x87870Bca3F3fD6335C3F4ce8392D69350B4fA4E2",
        "0x573ade81"
      ],
      "transaction": {
        "from": "0x1bab12dd29e89455752613055ec6036ed6c17ccf",
        "to": "0xf9e3956d538e03d54dc481d3999a6e0eb82917b0",
        "gas": "0x14e2f",
        "value": "0x0",
        "input": "0xd3d347e9000000000000000000000000e48f8112c78926bbe6e0ad89785e7f7d305e786800000000000000000000000087870bca3f3fd6335c3f4ce8392d69350b4fa4e2573ade8100000000000000000000000000000000000000000000000000000000",
        "nonce": "0x16",
        "chainId": "0x1"
      },
      "additionalContracts": [],
      "isFixedGasLimit": false
    },
    {
      "hash": "0x8ad7004f28946d1963263946732013ea69502af85f30f2013bb887d9eb839b3d",
      "transactionType": "CALL",
      "contractName": "SafePortfolioModule",
      "contractAddress": "0xf9e3956d538e03d54dc481d3999a6e0eb82917b0",
      "function": "setRateLimit(address,address,uint256,uint256)",
      "arguments": [
        "0xe48f8112C78926bBe6e0AD89785E7F7d305e7868",
        "0xA0b86991c6218b36c1d19D4a2e9Eb0cE3606eB48",
        "100000000000",
        "86400"
      ],
      "transaction": {
        "from": "0x1bab12dd29e89455752613055ec6036ed6c17ccf",
        "to": "0xf9e3956d538e03d54dc481d3999a6e0eb82917b0",
        "gas": "0x3d999",
        "value": "0x0",
        "input": "0xe42d7671000000000000000000000000e48f8112c78926bbe6e0ad89785e7f7d305e7868000000000000000000000000a0b86991c6218b36c1d19d4a2e9eb0ce3606eb48000000000000000000000000000000000000000000000000000000174876e8000000000000000000000000000000000000000000000000000000000000015180",
        "nonce": "0x17",
        "chainId": "0x1"
      },
      "additionalContracts": [],
      "isFixedGasLimit": false
    },
    {
      "hash": "0x42923b6e6121062dc9372f91a498b9147f9518f0566804b0aaaac443c51b94d1",
      "transactionType": "CALL",
      "contractName": "SafePortfolioModule",
      "contractAddress": "0xf9e3956d538e03d54dc481d3999a6e0eb82917b0",
      "function": "setRateLimit(address,address,uint256,uint256)",
      "arguments": [
        "0xe48f8112C78926bBe6e0AD89785E7F7d305e7868",
        "0xdAC17F958D2ee523a2206206994597C13D831ec7",
        "100000000000",
        "86400"
      ],
      "transaction": {
        "from": "0x1bab12dd29e89455752613055ec6036ed6c17ccf",
        "to": "0xf9e3956d538e03d54dc481d3999a6e0eb82917b0",
        "gas": "0x34693",
        "value": "0x0",
        "input": "0xe42d7671000000000000000000000000e48f8112c78926bbe6e0ad89785e7f7d305e7868000000000000000000000000dac17f958d2ee523a2206206994597c13d831ec7000000000000000000000000000000000000000000000000000000174876e8000000000000000000000000000000000000000000000000000000000000015180",
        "nonce": "0x18",
        "chainId": "0x1"
      },
      "additionalContracts": [],
      "isFixedGasLimit": false
    },
    {
      "hash": "0x50ca4012d2bc6b198c1862cf101bde05a85b2080ed50d92df7249f9f10c7f818",
      "transactionType": "CALL",
      "contractName": "SafePortfolioModule",
      "contractAddress": "0xf9e3956d538e03d54dc481d3999a6e0eb82917b0",
      "function": "setRateLimit(address,address,uint256,uint256)",
      "arguments": [
        "0xe48f8112C78926bBe6e0AD89785E7F7d305e7868",
        "0x6B175474E89094C44Da98b954EedeAC495271d0F",
        "100000000000000000000000",
        "86400"
      ],
      "transaction": {
        "from": "0x1bab12dd29e89455752613055ec6036ed6c17ccf",
        "to": "0xf9e3956d538e03d54dc481d3999a6e0eb82917b0",
        "gas": "0x346d5",
        "value": "0x0",
        "input": "0xe42d7671000000000000000000000000e48f8112c78926bbe6e0ad89785e7f7d305e78680000000000000000000000006b175474e89094c44da98b954eedeac495271d0f00000000000000000000000000000000000000000000152d02c7e14af68000000000000000000000000000000000000000000000000000000000000000015180",
        "nonce": "0x19",
        "chainId": "0x1"
      },
      "additionalContracts": [],
      "isFixedGasLimit": false
    },
    {
      "hash": "0x3c9f6ef334b48808062cb6f02077802f9b1ef8e56a9e3dca3e737878c3732275",
      "transactionType": "CALL",
      "contractName": "SafePortfolioModule",
      "contractAddress": "0xf9e3956d538e03d54dc481d3999a6e0eb82917b0",
      "function": "setRateLimit(address,address,uint256,uint256)",
      "arguments": [
        "0xe48f8112C78926bBe6e0AD89785E7F7d305e7868",
        "0xC02aaA39b223FE8D0A0e5C4F27eAD9083C756Cc2",
        "50000000000000000000",
        "86400"
      ],
      "transaction": {
        "from": "0x1bab12dd29e89455752613055ec6036ed6c17ccf",
        "to": "0xf9e3956d538e03d54dc481d3999a6e0eb82917b0",
        "gas": "0x3781d",
        "value": "0x0",
        "input": "0xe42d7671000000000000000000000000e48f8112c78926bbe6e0ad89785e7f7d305e7868000000000000000000000000c02aaa39b223fe8d0a0e5c4f27ead9083c756cc2000000000000000000000000000000000000000000000002b5e3af16b18800000000000000000000000000000000000000000000000000000000000000015180",
        "nonce": "0x1a",
        "chainId": "0x1"
      },
      "additionalContracts": [],
      "isFixedGasLimit": false
    },
    {
      "hash": "0x0125072e2ebd4e0acc912e005f4a750fc7fd356dfe22850c96d6b65a777333e5",
      "transactionType": "CALL",
      "contractName": "SafePortfolioModule",
      "contractAddress": "0xf9e3956d538e03d54dc481d3999a6e0eb82917b0",
      "function": "setRateLimit(address,address,uint256,uint256)",
      "arguments": [
        "0xe48f8112C78926bBe6e0AD89785E7F7d305e7868",
        "0x0000000000000000000000000000000000000000",
        "50000000000000000000",
        "86400"
      ],
      "transaction": {
        "from": "0x1bab12dd29e89455752613055ec6036ed6c17ccf",
        "to": "0xf9e3956d538e03d54dc481d3999a6e0eb82917b0",
        "gas": "0x2da1b",
        "value": "0x0",
        "input": "0xe42d7671000000000000000000000000e48f8112c78926bbe6e0ad89785e7f7d305e78680000000000000000000000000000000000000000000000000000000000000000000000000000000000000000000000000000000000000002b5e3af16b18800000000000000000000000000000000000000000000000000000000000000015180",
        "nonce": "0x1b",
        "chainId": "0x1"
      },
      "additionalContracts": [],
      "isFixedGasLimit": false
    }
  ],
  "receipts": [
    {
      "status": "0x1",
      "cumulativeGasUsed": "0x2584738",
      "logs": [],
      "logsBloom": "0x00000000000000000000000000000000000000000000000000000000000000000000000000000000000000000000000000000000000000000000000000000000000000000000000000000000000000000000000000000000000000000000000000000000000000000000000000000000000000000000000000000000000000000000000000000000000000000000000000000000000000000000000000000000000000000000000000000000000000000000000000000000000000000000000000000000000000000000000000000000000000000000000000000000000000000000000000000000000000000000000000000000000000000000000000000000",
      "type": "0x2",
      "transactionHash": "0x0125072e2ebd4e0acc912e005f4a750fc7fd356dfe22850c96d6b65a777333e5",
      "transactionIndex": "0xed",
      "blockHash": "0x69da0f271deba1c1ba1cf86bce076ee5fcea9c4edd62802a39fe1964e719d33d",
      "blockNumber": "0x1763f33",
      "gasUsed": "0x25984e",
      "effectiveGasPrice": "0x2d998d7",
      "from": "0x1bab12dd29e89455752613055ec6036ed6c17ccf",
      "to": null,
      "contractAddress": "0xf9e3956d538e03d54dc481d3999a6e0eb82917b0"
    },
    {
      "status": "0x1",
      "cumulativeGasUsed": "0x1e639ca",
      "logs": [
        {
          "address": "0xf9e3956d538e03d54dc481d3999a6e0eb82917b0",
          "topics": [
            "0x5e46a401bd19db7989e4bddec8853994809790cc1d0c1a35d4f607ab784beb31",
            "0x000000000000000000000000e48f8112c78926bbe6e0ad89785e7f7d305e7868",
            "0x00000000000000000000000087870bca3f3fd6335c3f4ce8392d69350b4fa4e2",
            "0x617ba03700000000000000000000000000000000000000000000000000000000"
          ],
          "data": "0x0000000000000000000000001bab12dd29e89455752613055ec6036ed6c17ccf",
          "blockHash": "0x27935d1b272e92037133aa4e206ca57dc5e27b98fdbc4756ed4b45c50e53cfef",
          "blockNumber": "0x1763f34",
          "blockTimestamp": "0x699d93df",
          "transactionHash": "0x8ad7004f28946d1963263946732013ea69502af85f30f2013bb887d9eb839b3d",
          "transactionIndex": "0x14f",
          "logIndex": "0x46f",
          "removed": false
        }
      ],
      "logsBloom": "0x0000000000000000000000000000000000000000000000000000000000000000000000000000000000000000000000000000000000000000000000000000000000000000000000000000000000000000000000800000000000000000000000400000000000000000000000000000000100000000000000000080000000000000000000000004000000000000000000000000020000000000000000000000000800000000000000000000000000000000000000000000000000000000000000000000000000000100000000000000000000000000000c000000000000000000000000004000008080000000002000000000000000000000000000000000000000",
      "type": "0x2",
      "transactionHash": "0x8ad7004f28946d1963263946732013ea69502af85f30f2013bb887d9eb839b3d",
      "transactionIndex": "0x14f",
      "blockHash": "0x27935d1b272e92037133aa4e206ca57dc5e27b98fdbc4756ed4b45c50e53cfef",
      "blockNumber": "0x1763f34",
      "gasUsed": "0xe481",
      "effectiveGasPrice": "0x31d182b",
      "from": "0x1bab12dd29e89455752613055ec6036ed6c17ccf",
      "to": "0xf9e3956d538e03d54dc481d3999a6e0eb82917b0",
      "contractAddress": null
    },
    {
      "status": "0x1",
      "cumulativeGasUsed": "0x17318eb",
      "logs": [
        {
          "address": "0xf9e3956d538e03d54dc481d3999a6e0eb82917b0",
          "topics": [
            "0x5e46a401bd19db7989e4bddec8853994809790cc1d0c1a35d4f607ab784beb31",
            "0x000000000000000000000000e48f8112c78926bbe6e0ad89785e7f7d305e7868",
            "0x00000000000000000000000087870bca3f3fd6335c3f4ce8392d69350b4fa4e2",
            "0x69328dec00000000000000000000000000000000000000000000000000000000"
          ],
          "data": "0x0000000000000000000000001bab12dd29e89455752613055ec6036ed6c17ccf",
          "blockHash": "0x4468a0287272ca02c226d87a5e243bc48fdfc9d92bb63e5d372b5f57984ce71e",
          "blockNumber": "0x1763f35",
          "blockTimestamp": "0x699d93eb",
          "transactionHash": "0x50ca4012d2bc6b198c1862cf101bde05a85b2080ed50d92df7249f9f10c7f818",
          "transactionIndex": "0x10b",
          "logIndex": "0x1ee",
          "removed": false
        }
      ],
      "logsBloom": "0x0000000000000000000000000000000000000000000001000000000000000000000000000000000000000000000000000000000000000000000000000000000000008000000000000000000000000000000000800000000000000000000000400000000000000000000000000000000100000000000000000080000000000000000000000000000000000000000000000000020000000000000000000000000800000000000000000001000000000000000000000000000000000000000000000000000000000100000000000000000000000000000c000000000000000000000000000000008080000000002000000000000000000000000000000000000000",
      "type": "0x2",
      "transactionHash": "0x50ca4012d2bc6b198c1862cf101bde05a85b2080ed50d92df7249f9f10c7f818",
      "transactionIndex": "0x10b",
      "blockHash": "0x4468a0287272ca02c226d87a5e243bc48fdfc9d92bb63e5d372b5f57984ce71e",
      "blockNumber": "0x1763f35",
      "gasUsed": "0xe481",
      "effectiveGasPrice": "0x32c4e34",
      "from": "0x1bab12dd29e89455752613055ec6036ed6c17ccf",
      "to": "0xf9e3956d538e03d54dc481d3999a6e0eb82917b0",
      "contractAddress": null
    },
    {
      "status": "0x1",
      "cumulativeGasUsed": "0x15a684c",
      "logs": [
        {
          "address": "0xf9e3956d538e03d54dc481d3999a6e0eb82917b0",
          "topics": [
            "0x5e46a401bd19db7989e4bddec8853994809790cc1d0c1a35d4f607ab784beb31",
            "0x000000000000000000000000e48f8112c78926bbe6e0ad89785e7f7d305e7868",
            "0x00000000000000000000000087870bca3f3fd6335c3f4ce8392d69350b4fa4e2",
            "0xa415bcad00000000000000000000000000000000000000000000000000000000"
          ],
          "data": "0x0000000000000000000000001bab12dd29e89455752613055ec6036ed6c17ccf",
          "blockHash": "0xd2f657c94272624c03edf38fd611fe3ce9320d4fc7f079e1c8fdfba8dc074e67",
          "blockNumber": "0x1763f36",
          "blockTimestamp": "0x699d93f7",
          "transactionHash": "0x2eea76bc36da1a60986de65751b893c1c85fb8b0696a8da9966a2f5d2d700a58",
          "transactionIndex": "0x14a",
          "logIndex": "0x231",
          "removed": false
        }
      ],
      "logsBloom": "0x0000000000000000000000000000000000000000000000000000000000000080000000000000000000000000000000000000000000000000000000000000000000000000000000000000000000000000000000800000000000000000000000400000000000000000000000000000000100000000000000000080000000000200000000000000000000000000000000000000020000000000000000000000000800000000000000000000000000000000000000000000000000000000001000000000000000000100000000000000000000000000000c000000000000000000000000000000008080000000002000000000000000000000000000000000000000",
      "type": "0x2",
      "transactionHash": "0x2eea76bc36da1a60986de65751b893c1c85fb8b0696a8da9966a2f5d2d700a58",
      "transactionIndex": "0x14a",
      "blockHash": "0xd2f657c94272624c03edf38fd611fe3ce9320d4fc7f079e1c8fdfba8dc074e67",
      "blockNumber": "0x1763f36",
      "gasUsed": "0xe481",
      "effectiveGasPrice": "0x34c1b55",
      "from": "0x1bab12dd29e89455752613055ec6036ed6c17ccf",
      "to": "0xf9e3956d538e03d54dc481d3999a6e0eb82917b0",
      "contractAddress": null
    },
    {
      "status": "0x1",
      "cumulativeGasUsed": "0x15b4ccd",
      "logs": [
        {
          "address": "0xf9e3956d538e03d54dc481d3999a6e0eb82917b0",
          "topics": [
            "0x5e46a401bd19db7989e4bddec8853994809790cc1d0c1a35d4f607ab784beb31",
            "0x000000000000000000000000e48f8112c78926bbe6e0ad89785e7f7d305e7868",
            "0x00000000000000000000000087870bca3f3fd6335c3f4ce8392d69350b4fa4e2",
            "0x573ade8100000000000000000000000000000000000000000000000000000000"
          ],
          "data": "0x0000000000000000000000001bab12dd29e89455752613055ec6036ed6c17ccf",
          "blockHash": "0xd2f657c94272624c03edf38fd611fe3ce9320d4fc7f079e1c8fdfba8dc074e67",
          "blockNumber": "0x1763f36",
          "blockTimestamp": "0x699d93f7",
          "transactionHash": "0x7a58f9ac2ecec723a4a54174639a4242c00d020f9e2a52f1d8f8a03acfdc9a2a",
          "transactionIndex": "0x14b",
          "logIndex": "0x232",
          "removed": false
        }
      ],
      "logsBloom": "0x0000000000000000000000000000000000000000000000000000000000000000000000000000000000000000000000000000000000000000000000001000000000000000000000000000002000000000000000800000000000000000000000400000000000000000000000000000000100000000000000000080000000000000000000000000000000000000000000000000020000000000000000000000000800000000000000000000000000000000000020000000000000000000000000000000000000000100000000000000000000000000000c000000000000000000000000000000008080000000002000000000000000000000000000000000000000",
      "type": "0x2",
      "transactionHash": "0x7a58f9ac2ecec723a4a54174639a4242c00d020f9e2a52f1d8f8a03acfdc9a2a",
      "transactionIndex": "0x14b",
      "blockHash": "0xd2f657c94272624c03edf38fd611fe3ce9320d4fc7f079e1c8fdfba8dc074e67",
      "blockNumber": "0x1763f36",
      "gasUsed": "0xe481",
      "effectiveGasPrice": "0x34c1b55",
      "from": "0x1bab12dd29e89455752613055ec6036ed6c17ccf",
      "to": "0xf9e3956d538e03d54dc481d3999a6e0eb82917b0",
      "contractAddress": null
    },
    {
      "status": "0x1",
      "cumulativeGasUsed": "0x15deeb7",
      "logs": [
        {
          "address": "0xf9e3956d538e03d54dc481d3999a6e0eb82917b0",
          "topics": [
            "0x4adc722d6e1fbc0bd6314e5a8a4f3fa7729cc2b60b3a9c075614f6069fcad029",
            "0x000000000000000000000000e48f8112c78926bbe6e0ad89785e7f7d305e7868",
            "0x000000000000000000000000a0b86991c6218b36c1d19d4a2e9eb0ce3606eb48",
            "0x0000000000000000000000001bab12dd29e89455752613055ec6036ed6c17ccf"
          ],
          "data": "0x000000000000000000000000000000000000000000000000000000174876e8000000000000000000000000000000000000000000000000000000000000015180",
          "blockHash": "0xd2f657c94272624c03edf38fd611fe3ce9320d4fc7f079e1c8fdfba8dc074e67",
          "blockNumber": "0x1763f36",
          "blockTimestamp": "0x699d93f7",
          "transactionHash": "0x3c9f6ef334b48808062cb6f02077802f9b1ef8e56a9e3dca3e737878c3732275",
          "transactionIndex": "0x14c",
          "logIndex": "0x233",
          "removed": false
        }
      ],
      "logsBloom": "0x00000000000000000000000000000000000000000000000000000000000000000040000000000000000002000000000000000000000000000000000000000000000000000000000000000000000000000000008000000000000000000000004000000000000000000000000000000000000000000000000000800000000000001000000000000000000000000000100200000000000000000000000000000000000000000000002000000000000000000000000000000000000000000000000008000000000000000000000000000000000000000000000000000000000000000000000000008080000000002400000004000000000000000000000000000000",
      "type": "0x2",
      "transactionHash": "0x3c9f6ef334b48808062cb6f02077802f9b1ef8e56a9e3dca3e737878c3732275",
      "transactionIndex": "0x14c",
      "blockHash": "0xd2f657c94272624c03edf38fd611fe3ce9320d4fc7f079e1c8fdfba8dc074e67",
      "blockNumber": "0x1763f36",
      "gasUsed": "0x2a1ea",
      "effectiveGasPrice": "0x34c1b55",
      "from": "0x1bab12dd29e89455752613055ec6036ed6c17ccf",
      "to": "0xf9e3956d538e03d54dc481d3999a6e0eb82917b0",
      "contractAddress": null
    },
    {
      "status": "0x1",
      "cumulativeGasUsed": "0x1604dd5",
      "logs": [
        {
          "address": "0xf9e3956d538e03d54dc481d3999a6e0eb82917b0",
          "topics": [
            "0x4adc722d6e1fbc0bd6314e5a8a4f3fa7729cc2b60b3a9c075614f6069fcad029",
            "0x000000000000000000000000e48f8112c78926bbe6e0ad89785e7f7d305e7868",
            "0x000000000000000000000000dac17f958d2ee523a2206206994597c13d831ec7",
            "0x0000000000000000000000001bab12dd29e89455752613055ec6036ed6c17ccf"
          ],
          "data": "0x000000000000000000000000000000000000000000000000000000174876e8000000000000000000000000000000000000000000000000000000000000015180",
          "blockHash": "0xd2f657c94272624c03edf38fd611fe3ce9320d4fc7f079e1c8fdfba8dc074e67",
          "blockNumber": "0x1763f36",
          "blockTimestamp": "0x699d93f7",
          "transactionHash": "0xcacfb280f8bbd58077d9f7f5afe7e8b625e33c1231d53be07fb58b2b689a30d3",
          "transactionIndex": "0x14d",
          "logIndex": "0x234",
          "removed": false
        }
      ],
      "logsBloom": "0x00000000000000000000000000000000000000000000000000000000000000000040000000000000000000000000000000000000000000000000000000000000000000000000000000000000000000000000008000000000000000000000004000000000000000000000000000000000000000200000000000800000000000001000000000000000000000000000100000000000000000000000000000000000000000000000002000000000000000000000000000000000000000000000004008000000000000000000000000000000000000020000000000000000000000000000000000008080000000002400000000000000000000000000000000000000",
      "type": "0x2",
      "transactionHash": "0xcacfb280f8bbd58077d9f7f5afe7e8b625e33c1231d53be07fb58b2b689a30d3",
      "transactionIndex": "0x14d",
      "blockHash": "0xd2f657c94272624c03edf38fd611fe3ce9320d4fc7f079e1c8fdfba8dc074e67",
      "blockNumber": "0x1763f36",
      "gasUsed": "0x25f1e",
      "effectiveGasPrice": "0x34c1b55",
      "from": "0x1bab12dd29e89455752613055ec6036ed6c17ccf",
      "to": "0xf9e3956d538e03d54dc481d3999a6e0eb82917b0",
      "contractAddress": null
    },
    {
      "status": "0x1",
      "cumulativeGasUsed": "0x162ad23",
      "logs": [
        {
          "address": "0xf9e3956d538e03d54dc481d3999a6e0eb82917b0",
          "topics": [
            "0x4adc722d6e1fbc0bd6314e5a8a4f3fa7729cc2b60b3a9c075614f6069fcad029",
            "0x000000000000000000000000e48f8112c78926bbe6e0ad89785e7f7d305e7868",
            "0x0000000000000000000000006b175474e89094c44da98b954eedeac495271d0f",
            "0x0000000000000000000000001bab12dd29e89455752613055ec6036ed6c17ccf"
          ],
          "data": "0x00000000000000000000000000000000000000000000152d02c7e14af68000000000000000000000000000000000000000000000000000000000000000015180",
          "blockHash": "0xd2f657c94272624c03edf38fd611fe3ce9320d4fc7f079e1c8fdfba8dc074e67",
          "blockNumber": "0x1763f36",
          "blockTimestamp": "0x699d93f7",
          "transactionHash": "0x42923b6e6121062dc9372f91a498b9147f9518f0566804b0aaaac443c51b94d1",
          "transactionIndex": "0x14e",
          "logIndex": "0x235",
          "removed": false
        }
      ],
      "logsBloom": "0x00000000000000000000000000000000000000000000000000000000000000000040000000000000000000000000000000000000000000000000000000000000000000000000000000000000000000000000008000000000000000000000004000000000000000000000000000000000000000000000000000800000000000201000000000000000000000000000100000000000000000000000000400000000000000000000002000000000000000000000000000000000000000000000000008000000000000000000000000000000000000000000000000000000000000000000000000008080000000002400000000000000000000100000000000000000",
      "type": "0x2",
      "transactionHash": "0x42923b6e6121062dc9372f91a498b9147f9518f0566804b0aaaac443c51b94d1",
      "transactionIndex": "0x14e",
      "blockHash": "0xd2f657c94272624c03edf38fd611fe3ce9320d4fc7f079e1c8fdfba8dc074e67",
      "blockNumber": "0x1763f36",
      "gasUsed": "0x25f4e",
      "effectiveGasPrice": "0x34c1b55",
      "from": "0x1bab12dd29e89455752613055ec6036ed6c17ccf",
      "to": "0xf9e3956d538e03d54dc481d3999a6e0eb82917b0",
      "contractAddress": null
    },
    {
      "status": "0x1",
      "cumulativeGasUsed": "0x1650c65",
      "logs": [
        {
          "address": "0xf9e3956d538e03d54dc481d3999a6e0eb82917b0",
          "topics": [
            "0x4adc722d6e1fbc0bd6314e5a8a4f3fa7729cc2b60b3a9c075614f6069fcad029",
            "0x000000000000000000000000e48f8112c78926bbe6e0ad89785e7f7d305e7868",
            "0x000000000000000000000000c02aaa39b223fe8d0a0e5c4f27ead9083c756cc2",
            "0x0000000000000000000000001bab12dd29e89455752613055ec6036ed6c17ccf"
          ],
          "data": "0x000000000000000000000000000000000000000000000002b5e3af16b18800000000000000000000000000000000000000000000000000000000000000015180",
          "blockHash": "0xd2f657c94272624c03edf38fd611fe3ce9320d4fc7f079e1c8fdfba8dc074e67",
          "blockNumber": "0x1763f36",
          "blockTimestamp": "0x699d93f7",
          "transactionHash": "0xd82470c7ad30e66d55efe126983706a4a8f5c4c9f58dd781a91f24c22a7ac607",
          "transactionIndex": "0x14f",
          "logIndex": "0x236",
          "removed": false
        }
      ],
      "logsBloom": "0x00000000000000000000000000000000000000000000000000000000000000000040000000000000000000000000000000000000000000000000000000000000000000000000000000000000000000800000008000000000000000000000004000000000000000000000000000000000000000000000000000800000000000001000000000000000000000400000100000000000000000000000000000000000000000000000002000000000000000000000000000000000000000000000000008000000000000000000000000080000000000000000000000000000000000000000000000008080000000002400000000000000000000000000000000000000",
      "type": "0x2",
      "transactionHash": "0xd82470c7ad30e66d55efe126983706a4a8f5c4c9f58dd781a91f24c22a7ac607",
      "transactionIndex": "0x14f",
      "blockHash": "0xd2f657c94272624c03edf38fd611fe3ce9320d4fc7f079e1c8fdfba8dc074e67",
      "blockNumber": "0x1763f36",
      "gasUsed": "0x25f42",
      "effectiveGasPrice": "0x34c1b55",
      "from": "0x1bab12dd29e89455752613055ec6036ed6c17ccf",
      "to": "0xf9e3956d538e03d54dc481d3999a6e0eb82917b0",
      "contractAddress": null
    },
    {
      "status": "0x1",
      "cumulativeGasUsed": "0x1671cfb",
      "logs": [
        {
          "address": "0xf9e3956d538e03d54dc481d3999a6e0eb82917b0",
          "topics": [
            "0x4adc722d6e1fbc0bd6314e5a8a4f3fa7729cc2b60b3a9c075614f6069fcad029",
            "0x000000000000000000000000e48f8112c78926bbe6e0ad89785e7f7d305e7868",
            "0x0000000000000000000000000000000000000000000000000000000000000000",
            "0x0000000000000000000000001bab12dd29e89455752613055ec6036ed6c17ccf"
          ],
          "data": "0x000000000000000000000000000000000000000000000002b5e3af16b18800000000000000000000000000000000000000000000000000000000000000015180",
          "blockHash": "0xd2f657c94272624c03edf38fd611fe3ce9320d4fc7f079e1c8fdfba8dc074e67",
          "blockNumber": "0x1763f36",
          "blockTimestamp": "0x699d93f7",
          "transactionHash": "0xca2a1eb2a5198fe48d22598bb2328dbde8f0d18a5a8437c7ec3da07b6e4398fb",
          "transactionIndex": "0x150",
          "logIndex": "0x237",
          "removed": false
        }
      ],
      "logsBloom": "0x00000000000000000000000000000000000000000000000000000000000000000040000000000000000000000000000000000000000000000000000000000000000000000000000000000000000000000000008000000000000000000000004000000000020000000000000000000800000000000000000000800000000000001000000000000000000000000000100000000000000000000000000000000000000000000000002000000000000000000000000000000000000000000000000008000000000000000000000000000000000000000000000000000000000020000000000000008080000000002400000000000000000000000000000000000000",
      "type": "0x2",
      "transactionHash": "0xca2a1eb2a5198fe48d22598bb2328dbde8f0d18a5a8437c7ec3da07b6e4398fb",
      "transactionIndex": "0x150",
      "blockHash": "0xd2f657c94272624c03edf38fd611fe3ce9320d4fc7f079e1c8fdfba8dc074e67",
      "blockNumber": "0x1763f36",
      "gasUsed": "0x21096",
      "effectiveGasPrice": "0x34c1b55",
      "from": "0x1bab12dd29e89455752613055ec6036ed6c17ccf",
      "to": "0xf9e3956d538e03d54dc481d3999a6e0eb82917b0",
      "contractAddress": null
    }
  ],
  "libraries": [],
  "pending": [],
  "returns": {},
  "timestamp": 1771934715211,
  "chain": 1,
  "commit": "ea4567d"
}